{
  "_format": "hh-sol-artifact-1",
  "contractName": "VotiumStrategyCore",
  "sourceName": "contracts/strategies/votium/VotiumStrategyCore.sol",
  "abi": [
    {
      "inputs": [],
      "stateMutability": "nonpayable",
      "type": "constructor"
    },
    {
      "inputs": [],
      "name": "AlreadyWithdrawn",
      "type": "error"
    },
    {
      "inputs": [],
      "name": "ChainlinkFailed",
      "type": "error"
    },
    {
      "inputs": [],
      "name": "InvalidLockedAmount",
      "type": "error"
    },
    {
      "inputs": [],
      "name": "NotOwner",
      "type": "error"
    },
    {
      "inputs": [],
      "name": "NotRewarder",
      "type": "error"
    },
    {
      "inputs": [
        {
          "internalType": "uint256",
          "name": "index",
          "type": "uint256"
        }
      ],
      "name": "SwapFailed",
      "type": "error"
    },
    {
      "inputs": [],
      "name": "WithdrawNotReady",
      "type": "error"
    },
    {
      "anonymous": false,
      "inputs": [
        {
          "indexed": true,
          "internalType": "address",
          "name": "owner",
          "type": "address"
        },
        {
          "indexed": true,
          "internalType": "address",
          "name": "spender",
          "type": "address"
        },
        {
          "indexed": false,
          "internalType": "uint256",
          "name": "value",
          "type": "uint256"
        }
      ],
      "name": "Approval",
      "type": "event"
    },
    {
      "anonymous": false,
      "inputs": [
        {
          "indexed": true,
          "internalType": "uint256",
          "name": "newPrice",
          "type": "uint256"
        },
        {
          "indexed": true,
          "internalType": "uint256",
          "name": "ethAmount",
          "type": "uint256"
        },
        {
          "indexed": true,
          "internalType": "uint256",
          "name": "cvxAmount",
          "type": "uint256"
        }
      ],
      "name": "DepositReward",
      "type": "event"
    },
    {
      "anonymous": false,
      "inputs": [
        {
          "indexed": true,
          "internalType": "address",
          "name": "tokenAddress",
          "type": "address"
        }
      ],
      "name": "FailedToSell",
      "type": "event"
    },
    {
      "anonymous": false,
      "inputs": [
        {
          "indexed": false,
          "internalType": "uint8",
          "name": "version",
          "type": "uint8"
        }
      ],
      "name": "Initialized",
      "type": "event"
    },
    {
      "anonymous": false,
      "inputs": [
        {
          "indexed": true,
          "internalType": "address",
          "name": "previousOwner",
          "type": "address"
        },
        {
          "indexed": true,
          "internalType": "address",
          "name": "newOwner",
          "type": "address"
        }
      ],
      "name": "OwnershipTransferred",
      "type": "event"
    },
    {
      "anonymous": false,
      "inputs": [
        {
          "indexed": true,
          "internalType": "address",
          "name": "from",
          "type": "address"
        },
        {
          "indexed": true,
          "internalType": "address",
          "name": "to",
          "type": "address"
        },
        {
          "indexed": false,
          "internalType": "uint256",
          "name": "value",
          "type": "uint256"
        }
      ],
      "name": "Transfer",
      "type": "event"
    },
    {
      "inputs": [],
      "name": "SNAPSHOT_DELEGATE_REGISTRY",
      "outputs": [
        {
          "internalType": "address",
          "name": "",
          "type": "address"
        }
      ],
      "stateMutability": "view",
      "type": "function"
    },
    {
      "inputs": [
        {
          "internalType": "address",
          "name": "owner",
          "type": "address"
        },
        {
          "internalType": "address",
          "name": "spender",
          "type": "address"
        }
      ],
      "name": "allowance",
      "outputs": [
        {
          "internalType": "uint256",
          "name": "",
          "type": "uint256"
        }
      ],
      "stateMutability": "view",
      "type": "function"
    },
    {
      "inputs": [
        {
          "components": [
            {
              "internalType": "address",
              "name": "sellToken",
              "type": "address"
            },
            {
              "internalType": "address",
              "name": "spender",
              "type": "address"
            },
            {
              "internalType": "address",
              "name": "swapTarget",
              "type": "address"
            },
            {
              "internalType": "bytes",
              "name": "swapCallData",
              "type": "bytes"
            }
          ],
          "internalType": "struct VotiumStrategyCore.SwapData[]",
          "name": "_swapsData",
          "type": "tuple[]"
        }
      ],
      "name": "applyRewards",
      "outputs": [],
      "stateMutability": "nonpayable",
      "type": "function"
    },
    {
      "inputs": [
        {
          "internalType": "address",
          "name": "spender",
          "type": "address"
        },
        {
          "internalType": "uint256",
          "name": "amount",
          "type": "uint256"
        }
      ],
      "name": "approve",
      "outputs": [
        {
          "internalType": "bool",
          "name": "",
          "type": "bool"
        }
      ],
      "stateMutability": "nonpayable",
      "type": "function"
    },
    {
      "inputs": [
        {
          "internalType": "address",
          "name": "account",
          "type": "address"
        }
      ],
      "name": "balanceOf",
      "outputs": [
        {
          "internalType": "uint256",
          "name": "",
          "type": "uint256"
        }
      ],
      "stateMutability": "view",
      "type": "function"
    },
    {
      "inputs": [],
      "name": "chainlinkCvxEthFeed",
      "outputs": [
        {
          "internalType": "contract AggregatorV3Interface",
          "name": "",
          "type": "address"
        }
      ],
      "stateMutability": "view",
      "type": "function"
    },
    {
      "inputs": [
        {
          "components": [
            {
              "internalType": "address",
              "name": "token",
              "type": "address"
            },
            {
              "internalType": "uint256",
              "name": "index",
              "type": "uint256"
            },
            {
              "internalType": "uint256",
              "name": "amount",
              "type": "uint256"
            },
            {
              "internalType": "bytes32[]",
              "name": "merkleProof",
              "type": "bytes32[]"
            }
          ],
          "internalType": "struct IVotiumMerkleStash.ClaimParam[]",
          "name": "_claimProofs",
          "type": "tuple[]"
        }
      ],
      "name": "claimRewards",
      "outputs": [],
      "stateMutability": "nonpayable",
      "type": "function"
    },
    {
      "inputs": [],
      "name": "cvxInSystem",
      "outputs": [
        {
          "internalType": "uint256",
          "name": "",
          "type": "uint256"
        }
      ],
      "stateMutability": "view",
      "type": "function"
    },
    {
      "inputs": [],
      "name": "cvxPerVotium",
      "outputs": [
        {
          "internalType": "uint256",
          "name": "",
          "type": "uint256"
        }
      ],
      "stateMutability": "view",
      "type": "function"
    },
    {
      "inputs": [],
      "name": "cvxUnlockObligations",
      "outputs": [
        {
          "internalType": "uint256",
          "name": "",
          "type": "uint256"
        }
      ],
      "stateMutability": "view",
      "type": "function"
    },
    {
      "inputs": [],
      "name": "decimals",
      "outputs": [
        {
          "internalType": "uint8",
          "name": "",
          "type": "uint8"
        }
      ],
      "stateMutability": "view",
      "type": "function"
    },
    {
      "inputs": [
        {
          "internalType": "address",
          "name": "spender",
          "type": "address"
        },
        {
          "internalType": "uint256",
          "name": "subtractedValue",
          "type": "uint256"
        }
      ],
      "name": "decreaseAllowance",
      "outputs": [
        {
          "internalType": "bool",
          "name": "",
          "type": "bool"
        }
      ],
      "stateMutability": "nonpayable",
      "type": "function"
    },
    {
      "inputs": [
        {
          "internalType": "uint256",
          "name": "_amount",
          "type": "uint256"
        }
      ],
      "name": "depositRewards",
      "outputs": [],
      "stateMutability": "payable",
      "type": "function"
    },
    {
      "inputs": [
        {
          "internalType": "bool",
          "name": "_validate",
          "type": "bool"
        }
      ],
      "name": "ethPerCvx",
      "outputs": [
        {
          "internalType": "uint256",
          "name": "",
          "type": "uint256"
        }
      ],
      "stateMutability": "view",
      "type": "function"
    },
    {
      "inputs": [
        {
          "internalType": "address",
          "name": "spender",
          "type": "address"
        },
        {
          "internalType": "uint256",
          "name": "addedValue",
          "type": "uint256"
        }
      ],
      "name": "increaseAllowance",
      "outputs": [
        {
          "internalType": "bool",
          "name": "",
          "type": "bool"
        }
      ],
      "stateMutability": "nonpayable",
      "type": "function"
    },
    {
      "inputs": [
        {
          "internalType": "address",
          "name": "_owner",
          "type": "address"
        },
        {
          "internalType": "address",
          "name": "_rewarder",
          "type": "address"
        },
        {
          "internalType": "address",
          "name": "_manager",
          "type": "address"
        }
      ],
      "name": "initialize",
      "outputs": [],
      "stateMutability": "nonpayable",
      "type": "function"
    },
    {
      "inputs": [],
      "name": "manager",
      "outputs": [
        {
          "internalType": "address",
          "name": "",
          "type": "address"
        }
      ],
      "stateMutability": "view",
      "type": "function"
    },
    {
      "inputs": [],
      "name": "name",
      "outputs": [
        {
          "internalType": "string",
          "name": "",
          "type": "string"
        }
      ],
      "stateMutability": "view",
      "type": "function"
    },
    {
      "inputs": [],
      "name": "owner",
      "outputs": [
        {
          "internalType": "address",
          "name": "",
          "type": "address"
        }
      ],
      "stateMutability": "view",
      "type": "function"
    },
    {
      "inputs": [],
      "name": "renounceOwnership",
      "outputs": [],
      "stateMutability": "nonpayable",
      "type": "function"
    },
    {
      "inputs": [],
      "name": "rewarder",
      "outputs": [
        {
          "internalType": "address",
          "name": "",
          "type": "address"
        }
      ],
      "stateMutability": "view",
      "type": "function"
    },
    {
      "inputs": [
        {
          "internalType": "address",
          "name": "_cvxEthFeedAddress",
          "type": "address"
        }
      ],
      "name": "setChainlinkCvxEthFeed",
      "outputs": [],
      "stateMutability": "nonpayable",
      "type": "function"
    },
    {
      "inputs": [
        {
          "internalType": "address",
          "name": "_rewarder",
          "type": "address"
        }
      ],
      "name": "setRewarder",
      "outputs": [],
      "stateMutability": "nonpayable",
      "type": "function"
    },
    {
      "inputs": [],
      "name": "symbol",
      "outputs": [
        {
          "internalType": "string",
          "name": "",
          "type": "string"
        }
      ],
      "stateMutability": "view",
      "type": "function"
    },
    {
      "inputs": [],
      "name": "totalSupply",
      "outputs": [
        {
          "internalType": "uint256",
          "name": "",
          "type": "uint256"
        }
      ],
      "stateMutability": "view",
      "type": "function"
    },
    {
      "inputs": [
        {
          "internalType": "address",
          "name": "to",
          "type": "address"
        },
        {
          "internalType": "uint256",
          "name": "amount",
          "type": "uint256"
        }
      ],
      "name": "transfer",
      "outputs": [
        {
          "internalType": "bool",
          "name": "",
          "type": "bool"
        }
      ],
      "stateMutability": "nonpayable",
      "type": "function"
    },
    {
      "inputs": [
        {
          "internalType": "address",
          "name": "from",
          "type": "address"
        },
        {
          "internalType": "address",
          "name": "to",
          "type": "address"
        },
        {
          "internalType": "uint256",
          "name": "amount",
          "type": "uint256"
        }
      ],
      "name": "transferFrom",
      "outputs": [
        {
          "internalType": "bool",
          "name": "",
          "type": "bool"
        }
      ],
      "stateMutability": "nonpayable",
      "type": "function"
    },
    {
      "inputs": [
        {
          "internalType": "address",
          "name": "newOwner",
          "type": "address"
        }
      ],
      "name": "transferOwnership",
      "outputs": [],
      "stateMutability": "nonpayable",
      "type": "function"
    },
    {
      "inputs": [
        {
          "internalType": "address",
          "name": "_token",
          "type": "address"
        }
      ],
      "name": "withdrawStuckTokens",
      "outputs": [],
      "stateMutability": "nonpayable",
      "type": "function"
    },
    {
      "stateMutability": "payable",
      "type": "receive"
    }
  ],
  "bytecode": "0x60806040523480156200001157600080fd5b506200001c62000022565b620000e3565b600054610100900460ff16156200008f5760405162461bcd60e51b815260206004820152602760248201527f496e697469616c697a61626c653a20636f6e747261637420697320696e697469604482015266616c697a696e6760c81b606482015260840160405180910390fd5b60005460ff90811614620000e1576000805460ff191660ff9081179091556040519081527f7f26b83ff96e1f2b6a682f133852f6798a09c465da95921460cefb38474024989060200160405180910390a15b565b61284d80620000f36000396000f3fe6080604052600436106101c65760003560e01c806384491366116100f7578063adc3f30a11610095578063dd62ed3e11610064578063dd62ed3e14610506578063e656be9d1461054c578063f2fde38b1461056c578063fe8332891461058c57600080fd5b8063adc3f30a1461047e578063c0c53b8b146104a6578063cb963728146104c6578063dcc3e06e146104e657600080fd5b80638da5cb5b116100d15780638da5cb5b1461040b57806395d89b4114610429578063a457c2d71461043e578063a9059cbb1461045e57600080fd5b806384491366146103b85780638aacb080146103d85780638bdf67f2146103f857600080fd5b80633950935111610164578063481c6a751161013e578063481c6a751461033757806370a0823114610357578063715018a61461038d57806376150af0146103a257600080fd5b806339509351146102bd578063395f6afb146102dd5780633a6462e41461031557600080fd5b806323b872dd116101a057806323b872dd1461024c5780632ffcfe6d1461026c578063313ce5671461028c578063368b0343146102a857600080fd5b806306fdde03146101d2578063095ea7b3146101fd57806318160ddd1461022d57600080fd5b366101cd57005b600080fd5b3480156101de57600080fd5b506101e76105a1565b6040516101f49190611f27565b60405180910390f35b34801561020957600080fd5b5061021d610218366004611f91565b610633565b60405190151581526020016101f4565b34801561023957600080fd5b506067545b6040519081526020016101f4565b34801561025857600080fd5b5061021d610267366004611fbb565b61064d565b34801561027857600080fd5b5061023e610287366004612005565b610671565b34801561029857600080fd5b50604051601281526020016101f4565b3480156102b457600080fd5b5061023e6107f6565b3480156102c957600080fd5b5061021d6102d8366004611f91565b610862565b3480156102e957600080fd5b50609a546102fd906001600160a01b031681565b6040516001600160a01b0390911681526020016101f4565b34801561032157600080fd5b50610335610330366004612029565b6108a1565b005b34801561034357600080fd5b506099546102fd906001600160a01b031681565b34801561036357600080fd5b5061023e610372366004612029565b6001600160a01b031660009081526065602052604090205490565b34801561039957600080fd5b506103356108d8565b3480156103ae57600080fd5b5061023e60975481565b3480156103c457600080fd5b506103356103d3366004612029565b6108ec565b3480156103e457600080fd5b506103356103f3366004612090565b610923565b6103356104063660046120d2565b610e7c565b34801561041757600080fd5b506033546001600160a01b03166102fd565b34801561043557600080fd5b506101e7610ff6565b34801561044a57600080fd5b5061021d610459366004611f91565b611005565b34801561046a57600080fd5b5061021d610479366004611f91565b6110b4565b34801561048a57600080fd5b506102fd73469788fe6e9e9681c6ebf3bf78e7fd26fc01544681565b3480156104b257600080fd5b506103356104c13660046120eb565b6110c2565b3480156104d257600080fd5b506103356104e1366004612029565b6113a8565b3480156104f257600080fd5b506098546102fd906001600160a01b031681565b34801561051257600080fd5b5061023e61052136600461212e565b6001600160a01b03918216600090815260666020908152604080832093909416825291909152205490565b34801561055857600080fd5b50610335610567366004612090565b6114ad565b34801561057857600080fd5b50610335610587366004612029565b611503565b34801561059857600080fd5b5061023e611593565b6060606880546105b090612161565b80601f01602080910402602001604051908101604052809291908181526020018280546105dc90612161565b80156106295780601f106105fe57610100808354040283529160200191610629565b820191906000526020600020905b81548152906001019060200180831161060c57829003601f168201915b5050505050905090565b6000336106418185856116b1565b60019150505b92915050565b60003361065b858285611809565b610666858585611895565b506001949350505050565b6040805160808101825260008082526020820181905291810182905260608101829052609a60009054906101000a90046001600160a01b03166001600160a01b031663feaf968c6040518163ffffffff1660e01b815260040160a060405180830381865afa925050508015610703575060408051601f3d908101601f19168201909252610700918101906121af565b60015b6107135760006060820152610737565b506001606086015269ffffffffffffffffffff909316845250602083015260408201525b8215806107af57506060810151151560011480156107615750805169ffffffffffffffffffff1615155b801561077257506000816020015112155b80156107815750604081015115155b8015610791575042816040015111155b80156107af575062015f908160400151426107ac9190612215565b11155b156107be576020015192915050565b6040517ff6cd63ec00000000000000000000000000000000000000000000000000000000815260040160405180910390fd5b50919050565b60008061080260675490565b9050600061080e611593565b905081158061081b575080155b1561083057670de0b6b3a76400009250505090565b816097548261083f9190612215565b61085190670de0b6b3a7640000612228565b61085b919061223f565b9250505090565b3360008181526066602090815260408083206001600160a01b0387168452909152812054909190610641908290869061089c908790612261565b6116b1565b6108a9611a89565b6098805473ffffffffffffffffffffffffffffffffffffffff19166001600160a01b0392909216919091179055565b6108e0611a89565b6108ea6000611ae3565b565b6108f4611a89565b609a805473ffffffffffffffffffffffffffffffffffffffff19166001600160a01b0392909216919091179055565b6098546001600160a01b03163314610967576040517f0aa9c95100000000000000000000000000000000000000000000000000000000815260040160405180910390fd5b4760005b82811015610dcc57600084848381811061098757610987612274565b9050602002810190610999919061228a565b6109a7906020810190612029565b6001600160a01b031663dd62ed3e308787868181106109c8576109c8612274565b90506020028101906109da919061228a565b6109eb906040810190602001612029565b6040517fffffffff0000000000000000000000000000000000000000000000000000000060e085901b1681526001600160a01b03928316600482015291166024820152604401602060405180830381865afa158015610a4e573d6000803e3d6000fd5b505050506040513d601f19601f82011682018060405250810190610a7291906122aa565b90506000198114610c84578015610b8357848483818110610a9557610a95612274565b9050602002810190610aa7919061228a565b610ab5906020810190612029565b6001600160a01b031663095ea7b3868685818110610ad557610ad5612274565b9050602002810190610ae7919061228a565b610af8906040810190602001612029565b6040517fffffffff0000000000000000000000000000000000000000000000000000000060e084901b1681526001600160a01b039091166004820152600060248201526044016020604051808303816000875af1158015610b5d573d6000803e3d6000fd5b505050506040513d601f19601f82011682018060405250810190610b8191906122c3565b505b848483818110610b9557610b95612274565b9050602002810190610ba7919061228a565b610bb5906020810190612029565b6001600160a01b031663095ea7b3868685818110610bd557610bd5612274565b9050602002810190610be7919061228a565b610bf8906040810190602001612029565b6040517fffffffff0000000000000000000000000000000000000000000000000000000060e084901b1681526001600160a01b03909116600482015260001960248201526044016020604051808303816000875af1158015610c5e573d6000803e3d6000fd5b505050506040513d601f19601f82011682018060405250810190610c8291906122c3565b505b6000858584818110610c9857610c98612274565b9050602002810190610caa919061228a565b610cbb906060810190604001612029565b6001600160a01b0316868685818110610cd657610cd6612274565b9050602002810190610ce8919061228a565b610cf69060608101906122e0565b604051610d04929190612327565b6000604051808303816000865af19150503d8060008114610d41576040519150601f19603f3d011682016040523d82523d6000602084013e610d46565b606091505b5050905080610db757858584818110610d6157610d61612274565b9050602002810190610d73919061228a565b610d81906020810190612029565b6001600160a01b03167f0ccdb5ee65b9e13aec11a679920f2fb87e044524fc2766da5cb7c95d3a3f2e6960405160405180910390a25b50508080610dc490612337565b91505061096b565b50476000610dda8383612215565b6099549091506001600160a01b031615610e6c576099546040517f8bdf67f2000000000000000000000000000000000000000000000000000000008152600481018390526001600160a01b0390911690638bdf67f29083906024016000604051808303818588803b158015610e4e57600080fd5b505af1158015610e62573d6000803e3d6000fd5b5050505050610e75565b610e7581610e7c565b5050505050565b6000610e8782611b42565b6040517f095ea7b30000000000000000000000000000000000000000000000000000000081527372a19342e8f1838460ebfccef09f6585e32db86e600482015260248101829052909150734e3fbd56cd56c3e72c1403e103b45db9da5b9d2b9063095ea7b3906044016020604051808303816000875af1158015610f0f573d6000803e3d6000fd5b505050506040513d601f19601f82011682018060405250810190610f3391906122c3565b506040517fe2ab691d00000000000000000000000000000000000000000000000000000000815230600482015260248101829052600060448201527372a19342e8f1838460ebfccef09f6585e32db86e9063e2ab691d90606401600060405180830381600087803b158015610fa757600080fd5b505af1158015610fbb573d6000803e3d6000fd5b505050508082610fc96107f6565b6040517fed9a567f42e0ef8986598c5257db7be662f4eaae3892286b03c5ba3a1ddf399b90600090a45050565b6060606980546105b090612161565b3360008181526066602090815260408083206001600160a01b0387168452909152812054909190838110156110a75760405162461bcd60e51b815260206004820152602560248201527f45524332303a2064656372656173656420616c6c6f77616e63652062656c6f7760448201527f207a65726f00000000000000000000000000000000000000000000000000000060648201526084015b60405180910390fd5b61066682868684036116b1565b600033610641818585611895565b600054610100900460ff16158080156110e25750600054600160ff909116105b806110fc5750303b1580156110fc575060005460ff166001145b61116e5760405162461bcd60e51b815260206004820152602e60248201527f496e697469616c697a61626c653a20636f6e747261637420697320616c72656160448201527f647920696e697469616c697a6564000000000000000000000000000000000000606482015260840161109e565b600080547fffffffffffffffffffffffffffffffffffffffffffffffffffffffffffffff0016600117905580156111af576000805461ff0019166101001790555b6040517fbd86e5080000000000000000000000000000000000000000000000000000000081527f6376782e657468000000000000000000000000000000000000000000000000006004820181905273de1e6a7ed0ad3f61d531a8a78e83ccddbd6e0c4960248301819052909173469788fe6e9e9681c6ebf3bf78e7fd26fc0154469190829063bd86e50890604401600060405180830381600087803b15801561125757600080fd5b505af115801561126b573d6000803e3d6000fd5b5050609880546001600160a01b03808b1673ffffffffffffffffffffffffffffffffffffffff199283161790925560998054928a16929091169190911790555050604080518082018252601581527f566f7469756d20416645746820537472617465677900000000000000000000006020808301919091528251808401909352600683527f76416645746800000000000000000000000000000000000000000000000000009083015261131d91611ce8565b61132687611ae3565b5050609a805473ffffffffffffffffffffffffffffffffffffffff191673c9cbf687f43176b302f03f5e58470b77d07c61c61790555080156113a2576000805461ff0019169055604051600181527f7f26b83ff96e1f2b6a682f133852f6798a09c465da95921460cefb38474024989060200160405180910390a15b50505050565b6113b0611a89565b6040516370a0823160e01b81523060048201526001600160a01b0382169063a9059cbb90339083906370a0823190602401602060405180830381865afa1580156113fe573d6000803e3d6000fd5b505050506040513d601f19601f8201168201806040525081019061142291906122aa565b6040517fffffffff0000000000000000000000000000000000000000000000000000000060e085901b1681526001600160a01b03909216600483015260248201526044016020604051808303816000875af1158015611485573d6000803e3d6000fd5b505050506040513d601f19601f820116820180604052508101906114a991906122c3565b5050565b6098546001600160a01b031633146114f1576040517f0aa9c95100000000000000000000000000000000000000000000000000000000815260040160405180910390fd5b6114fb8282611d6f565b6114a9611df9565b61150b611a89565b6001600160a01b0381166115875760405162461bcd60e51b815260206004820152602660248201527f4f776e61626c653a206e6577206f776e657220697320746865207a65726f206160448201527f6464726573730000000000000000000000000000000000000000000000000000606482015260840161109e565b61159081611ae3565b50565b6040517f0483a7f600000000000000000000000000000000000000000000000000000000815230600482015260009081907372a19342e8f1838460ebfccef09f6585e32db86e90630483a7f690602401600060405180830381865afa158015611600573d6000803e3d6000fd5b505050506040513d6000823e601f3d908101601f1916820160405261162891908101906123df565b50506040516370a0823160e01b8152306004820152919250734e3fbd56cd56c3e72c1403e103b45db9da5b9d2b916370a082319150602401602060405180830381865afa15801561167d573d6000803e3d6000fd5b505050506040513d601f19601f820116820180604052508101906116a191906122aa565b6116ab9082612261565b91505090565b6001600160a01b03831661172c5760405162461bcd60e51b8152602060048201526024808201527f45524332303a20617070726f76652066726f6d20746865207a65726f2061646460448201527f7265737300000000000000000000000000000000000000000000000000000000606482015260840161109e565b6001600160a01b0382166117a85760405162461bcd60e51b815260206004820152602260248201527f45524332303a20617070726f766520746f20746865207a65726f20616464726560448201527f7373000000000000000000000000000000000000000000000000000000000000606482015260840161109e565b6001600160a01b0383811660008181526066602090815260408083209487168084529482529182902085905590518481527f8c5be1e5ebec7d5bd14f71427d1e84f3dd0314c0f7b2291e5b200ac8c7c3b925910160405180910390a3505050565b6001600160a01b0383811660009081526066602090815260408083209386168352929052205460001981146113a257818110156118885760405162461bcd60e51b815260206004820152601d60248201527f45524332303a20696e73756666696369656e7420616c6c6f77616e6365000000604482015260640161109e565b6113a284848484036116b1565b6001600160a01b0383166119115760405162461bcd60e51b815260206004820152602560248201527f45524332303a207472616e736665722066726f6d20746865207a65726f20616460448201527f6472657373000000000000000000000000000000000000000000000000000000606482015260840161109e565b6001600160a01b03821661198d5760405162461bcd60e51b815260206004820152602360248201527f45524332303a207472616e7366657220746f20746865207a65726f206164647260448201527f6573730000000000000000000000000000000000000000000000000000000000606482015260840161109e565b6001600160a01b03831660009081526065602052604090205481811015611a1c5760405162461bcd60e51b815260206004820152602660248201527f45524332303a207472616e7366657220616d6f756e742065786365656473206260448201527f616c616e63650000000000000000000000000000000000000000000000000000606482015260840161109e565b6001600160a01b0380851660008181526065602052604080822086860390559286168082529083902080548601905591517fddf252ad1be2c89b69c2b068fc378daa952ba7f163c4a11628f55a4df523b3ef90611a7c9086815260200190565b60405180910390a36113a2565b6033546001600160a01b031633146108ea5760405162461bcd60e51b815260206004820181905260248201527f4f776e61626c653a2063616c6c6572206973206e6f7420746865206f776e6572604482015260640161109e565b603380546001600160a01b0383811673ffffffffffffffffffffffffffffffffffffffff19831681179093556040519116919082907f8be0079c531659141344cd1fd0a4f28419497f9722a3daafe3b4186f6b6457e090600090a35050565b6040516370a0823160e01b815230600482015260009073b576491f1e6e5e62f1d8f26062ee822b40b0e0d4908290734e3fbd56cd56c3e72c1403e103b45db9da5b9d2b906370a0823190602401602060405180830381865afa158015611bac573d6000803e3d6000fd5b505050506040513d601f19601f82011682018060405250810190611bd091906122aa565b6040517f65b2489b000000000000000000000000000000000000000000000000000000008152600060048201819052600160248301526044820187905260648201529091506001600160a01b038316906365b2489b9086906084016000604051808303818588803b158015611c4457600080fd5b505af1158015611c58573d6000803e3d6000fd5b50506040516370a0823160e01b815230600482015260009350734e3fbd56cd56c3e72c1403e103b45db9da5b9d2b92506370a082319150602401602060405180830381865afa158015611caf573d6000803e3d6000fd5b505050506040513d601f19601f82011682018060405250810190611cd391906122aa565b9050611cdf8282612215565b95945050505050565b600054610100900460ff16611d655760405162461bcd60e51b815260206004820152602b60248201527f496e697469616c697a61626c653a20636f6e7472616374206973206e6f74206960448201527f6e697469616c697a696e67000000000000000000000000000000000000000000606482015260840161109e565b6114a98282611e91565b6040517f20ce64de00000000000000000000000000000000000000000000000000000000815273378ba9b73309be80bf4c2c027aad799766a7ed5a906320ce64de90611dc39030908690869060040161253b565b600060405180830381600087803b158015611ddd57600080fd5b505af1158015611df1573d6000803e3d6000fd5b505050505050565b6040517f5a7b87f2000000000000000000000000000000000000000000000000000000008152606090733f29cb4111cbda8081642da1f75b3c12decf251690635a7b87f290611e5e908490819081908190600090819081908190600890600401612693565b600060405180830381600087803b158015611e7857600080fd5b505af1158015610e75573d6000803e3d6000fd5b505050565b600054610100900460ff16611f0e5760405162461bcd60e51b815260206004820152602b60248201527f496e697469616c697a61626c653a20636f6e7472616374206973206e6f74206960448201527f6e697469616c697a696e67000000000000000000000000000000000000000000606482015260840161109e565b6068611f1a8382612757565b506069611e8c8282612757565b600060208083528351808285015260005b81811015611f5457858101830151858201604001528201611f38565b506000604082860101526040601f19601f8301168501019250505092915050565b80356001600160a01b0381168114611f8c57600080fd5b919050565b60008060408385031215611fa457600080fd5b611fad83611f75565b946020939093013593505050565b600080600060608486031215611fd057600080fd5b611fd984611f75565b9250611fe760208501611f75565b9150604084013590509250925092565b801515811461159057600080fd5b60006020828403121561201757600080fd5b813561202281611ff7565b9392505050565b60006020828403121561203b57600080fd5b61202282611f75565b60008083601f84011261205657600080fd5b50813567ffffffffffffffff81111561206e57600080fd5b6020830191508360208260051b850101111561208957600080fd5b9250929050565b600080602083850312156120a357600080fd5b823567ffffffffffffffff8111156120ba57600080fd5b6120c685828601612044565b90969095509350505050565b6000602082840312156120e457600080fd5b5035919050565b60008060006060848603121561210057600080fd5b61210984611f75565b925061211760208501611f75565b915061212560408501611f75565b90509250925092565b6000806040838503121561214157600080fd5b61214a83611f75565b915061215860208401611f75565b90509250929050565b600181811c9082168061217557607f821691505b6020821081036107f057634e487b7160e01b600052602260045260246000fd5b805169ffffffffffffffffffff81168114611f8c57600080fd5b600080600080600060a086880312156121c757600080fd5b6121d086612195565b94506020860151935060408601519250606086015191506121f360808701612195565b90509295509295909350565b634e487b7160e01b600052601160045260246000fd5b81810381811115610647576106476121ff565b8082028115828204841417610647576106476121ff565b60008261225c57634e487b7160e01b600052601260045260246000fd5b500490565b80820180821115610647576106476121ff565b634e487b7160e01b600052603260045260246000fd5b60008235607e198336030181126122a057600080fd5b9190910192915050565b6000602082840312156122bc57600080fd5b5051919050565b6000602082840312156122d557600080fd5b815161202281611ff7565b6000808335601e198436030181126122f757600080fd5b83018035915067ffffffffffffffff82111561231257600080fd5b60200191503681900382131561208957600080fd5b8183823760009101908152919050565b6000600019820361234a5761234a6121ff565b5060010190565b634e487b7160e01b600052604160045260246000fd5b6040516060810167ffffffffffffffff8111828210171561238a5761238a612351565b60405290565b604051601f8201601f1916810167ffffffffffffffff811182821017156123b9576123b9612351565b604052919050565b80516dffffffffffffffffffffffffffff81168114611f8c57600080fd5b600080600080608085870312156123f557600080fd5b845193506020808601519350604080870151935060608088015167ffffffffffffffff8082111561242557600080fd5b818a0191508a601f83011261243957600080fd5b81518181111561244b5761244b612351565b612459868260051b01612390565b818152868101925090840283018601908c82111561247657600080fd5b928601925b818410156124df5784848e0312156124935760008081fd5b61249b612367565b6124a4856123c1565b81526124b18886016123c1565b888201528685015163ffffffff811681146124cc5760008081fd5b818801528352928401929186019161247b565b999c989b5096995050505050505050565b81835260007f07ffffffffffffffffffffffffffffffffffffffffffffffffffffffffffffff83111561252257600080fd5b8260051b80836020870137939093016020019392505050565b6001600160a01b03848116825260406020808401829052838201859052600092606091828601600588811b880185018a885b8b81101561263d577fffffffffffffffffffffffffffffffffffffffffffffffffffffffffffffffa08b84030185528135607e198e36030181126125b057600080fd5b8d016080886125be83611f75565b16855287820135888601528a8201358b86015289820135601e198336030181126125e757600080fd5b90910187810191903567ffffffffffffffff81111561260557600080fd5b80871b360383131561261657600080fd5b818b87015261262882870182856124f0565b9789019795505050918601915060010161256d565b50909c9b505050505050505050505050565b600081518084526020808501945080840160005b838110156126885781516001600160a01b031687529582019590820190600101612663565b509495945050505050565b60006101208083526126a78184018d61264f565b905082810360208401526126bb818c61264f565b905082810360408401526126cf818b61264f565b905082810360608401526126e3818a61264f565b6080840198909852505060a081019490945260c084019290925260e083015261010090910152949350505050565b601f821115611e8c57600081815260208120601f850160051c810160208610156127385750805b601f850160051c820191505b81811015611df157828155600101612744565b815167ffffffffffffffff81111561277157612771612351565b6127858161277f8454612161565b84612711565b602080601f8311600181146127ba57600084156127a25750858301515b600019600386901b1c1916600185901b178555611df1565b600085815260208120601f198616915b828110156127e9578886015182559484019460019091019084016127ca565b50858210156128075787850151600019600388901b60f8161c191681555b5050505050600190811b0190555056fea2646970667358221220470a2b54309ca11491fd5b859c1a0343e057df9c59838f94611f157a310d8dc664736f6c63430008130033",
  "linkReferences": {},
  "deployedLinkReferences": {}
}