{
  "_format": "hh-sol-artifact-1",
  "contractName": "AfEth",
  "sourceName": "contracts/AfEth.sol",
  "abi": [
    {
      "inputs": [],
      "stateMutability": "nonpayable",
      "type": "constructor"
    },
    {
      "inputs": [],
      "name": "BelowMinOut",
      "type": "error"
    },
    {
      "inputs": [],
      "name": "CanNotWithdraw",
      "type": "error"
    },
    {
      "inputs": [],
      "name": "FailedToDeposit",
      "type": "error"
    },
    {
      "inputs": [],
      "name": "FailedToSend",
      "type": "error"
    },
    {
      "inputs": [],
      "name": "InsufficientBalance",
      "type": "error"
    },
    {
      "inputs": [],
      "name": "InvalidFee",
      "type": "error"
    },
    {
      "inputs": [],
      "name": "InvalidStrategy",
      "type": "error"
    },
    {
      "inputs": [],
      "name": "NotOwner",
      "type": "error"
    },
    {
      "inputs": [],
      "name": "Paused",
      "type": "error"
    },
    {
      "inputs": [],
      "name": "StrategyAlreadyAdded",
      "type": "error"
    },
    {
      "inputs": [],
      "name": "StrategyNotFound",
      "type": "error"
    },
    {
      "anonymous": false,
      "inputs": [
        {
          "indexed": true,
          "internalType": "address",
          "name": "owner",
          "type": "address"
        },
        {
          "indexed": true,
          "internalType": "address",
          "name": "spender",
          "type": "address"
        },
        {
          "indexed": false,
          "internalType": "uint256",
          "name": "value",
          "type": "uint256"
        }
      ],
      "name": "Approval",
      "type": "event"
    },
    {
      "anonymous": false,
      "inputs": [
        {
          "indexed": false,
          "internalType": "uint8",
          "name": "version",
          "type": "uint8"
        }
      ],
      "name": "Initialized",
      "type": "event"
    },
    {
      "anonymous": false,
      "inputs": [
        {
          "indexed": true,
          "internalType": "address",
          "name": "previousOwner",
          "type": "address"
        },
        {
          "indexed": true,
          "internalType": "address",
          "name": "newOwner",
          "type": "address"
        }
      ],
      "name": "OwnershipTransferred",
      "type": "event"
    },
    {
      "anonymous": false,
      "inputs": [
        {
          "indexed": true,
          "internalType": "address",
          "name": "from",
          "type": "address"
        },
        {
          "indexed": true,
          "internalType": "address",
          "name": "to",
          "type": "address"
        },
        {
          "indexed": false,
          "internalType": "uint256",
          "name": "value",
          "type": "uint256"
        }
      ],
      "name": "Transfer",
      "type": "event"
    },
    {
      "anonymous": false,
      "inputs": [
        {
          "indexed": true,
          "internalType": "address",
          "name": "account",
          "type": "address"
        },
        {
          "indexed": false,
          "internalType": "uint256",
          "name": "amount",
          "type": "uint256"
        },
        {
          "indexed": false,
          "internalType": "uint256",
          "name": "withdrawId",
          "type": "uint256"
        },
        {
          "indexed": false,
          "internalType": "uint256",
          "name": "withdrawTime",
          "type": "uint256"
        }
      ],
      "name": "WithdrawRequest",
      "type": "event"
    },
    {
      "inputs": [],
      "name": "SAF_ETH_ADDRESS",
      "outputs": [
        {
          "internalType": "address",
          "name": "",
          "type": "address"
        }
      ],
      "stateMutability": "view",
      "type": "function"
    },
    {
      "inputs": [
        {
          "internalType": "address",
          "name": "owner",
          "type": "address"
        },
        {
          "internalType": "address",
          "name": "spender",
          "type": "address"
        }
      ],
      "name": "allowance",
      "outputs": [
        {
          "internalType": "uint256",
          "name": "",
          "type": "uint256"
        }
      ],
      "stateMutability": "view",
      "type": "function"
    },
    {
      "inputs": [
        {
          "internalType": "address",
          "name": "spender",
          "type": "address"
        },
        {
          "internalType": "uint256",
          "name": "amount",
          "type": "uint256"
        }
      ],
      "name": "approve",
      "outputs": [
        {
          "internalType": "bool",
          "name": "",
          "type": "bool"
        }
      ],
      "stateMutability": "nonpayable",
      "type": "function"
    },
    {
      "inputs": [
        {
          "internalType": "address",
          "name": "account",
          "type": "address"
        }
      ],
      "name": "balanceOf",
      "outputs": [
        {
          "internalType": "uint256",
          "name": "",
          "type": "uint256"
        }
      ],
      "stateMutability": "view",
      "type": "function"
    },
    {
      "inputs": [
        {
          "internalType": "uint256",
          "name": "_withdrawId",
          "type": "uint256"
        }
      ],
      "name": "canWithdraw",
      "outputs": [
        {
          "internalType": "bool",
          "name": "",
          "type": "bool"
        }
      ],
      "stateMutability": "view",
      "type": "function"
    },
    {
      "inputs": [],
      "name": "decimals",
      "outputs": [
        {
          "internalType": "uint8",
          "name": "",
          "type": "uint8"
        }
      ],
      "stateMutability": "view",
      "type": "function"
    },
    {
      "inputs": [
        {
          "internalType": "address",
          "name": "spender",
          "type": "address"
        },
        {
          "internalType": "uint256",
          "name": "subtractedValue",
          "type": "uint256"
        }
      ],
      "name": "decreaseAllowance",
      "outputs": [
        {
          "internalType": "bool",
          "name": "",
          "type": "bool"
        }
      ],
      "stateMutability": "nonpayable",
      "type": "function"
    },
    {
      "inputs": [
        {
          "internalType": "uint256",
          "name": "_minout",
          "type": "uint256"
        }
      ],
      "name": "deposit",
      "outputs": [],
      "stateMutability": "payable",
      "type": "function"
    },
    {
      "inputs": [
        {
          "internalType": "uint256",
          "name": "_amount",
          "type": "uint256"
        }
      ],
      "name": "depositRewards",
      "outputs": [],
      "stateMutability": "payable",
      "type": "function"
    },
    {
      "inputs": [],
      "name": "feeAddress",
      "outputs": [
        {
          "internalType": "address",
          "name": "",
          "type": "address"
        }
      ],
      "stateMutability": "view",
      "type": "function"
    },
    {
      "inputs": [
        {
          "internalType": "address",
          "name": "spender",
          "type": "address"
        },
        {
          "internalType": "uint256",
          "name": "addedValue",
          "type": "uint256"
        }
      ],
      "name": "increaseAllowance",
      "outputs": [
        {
          "internalType": "bool",
          "name": "",
          "type": "bool"
        }
      ],
      "stateMutability": "nonpayable",
      "type": "function"
    },
    {
      "inputs": [],
      "name": "initialize",
      "outputs": [],
      "stateMutability": "nonpayable",
      "type": "function"
    },
    {
      "inputs": [],
      "name": "latestWithdrawId",
      "outputs": [
        {
          "internalType": "uint256",
          "name": "",
          "type": "uint256"
        }
      ],
      "stateMutability": "view",
      "type": "function"
    },
    {
      "inputs": [],
      "name": "name",
      "outputs": [
        {
          "internalType": "string",
          "name": "",
          "type": "string"
        }
      ],
      "stateMutability": "view",
      "type": "function"
    },
    {
      "inputs": [],
      "name": "owner",
      "outputs": [
        {
          "internalType": "address",
          "name": "",
          "type": "address"
        }
      ],
      "stateMutability": "view",
      "type": "function"
    },
    {
      "inputs": [],
      "name": "pauseDeposit",
      "outputs": [
        {
          "internalType": "bool",
          "name": "",
          "type": "bool"
        }
      ],
      "stateMutability": "view",
      "type": "function"
    },
    {
      "inputs": [],
      "name": "pauseWithdraw",
      "outputs": [
        {
          "internalType": "bool",
          "name": "",
          "type": "bool"
        }
      ],
      "stateMutability": "view",
      "type": "function"
    },
    {
      "inputs": [],
      "name": "pendingSafEthWithdraws",
      "outputs": [
        {
          "internalType": "uint256",
          "name": "",
          "type": "uint256"
        }
      ],
      "stateMutability": "view",
      "type": "function"
    },
    {
      "inputs": [],
      "name": "price",
      "outputs": [
        {
          "internalType": "uint256",
          "name": "",
          "type": "uint256"
        }
      ],
      "stateMutability": "view",
      "type": "function"
    },
    {
      "inputs": [],
      "name": "protocolFee",
      "outputs": [
        {
          "internalType": "uint256",
          "name": "",
          "type": "uint256"
        }
      ],
      "stateMutability": "view",
      "type": "function"
    },
    {
      "inputs": [],
      "name": "ratio",
      "outputs": [
        {
          "internalType": "uint256",
          "name": "",
          "type": "uint256"
        }
      ],
      "stateMutability": "view",
      "type": "function"
    },
    {
      "inputs": [],
      "name": "renounceOwnership",
      "outputs": [],
      "stateMutability": "nonpayable",
      "type": "function"
    },
    {
      "inputs": [
        {
          "internalType": "uint256",
          "name": "_amount",
          "type": "uint256"
        }
      ],
      "name": "requestWithdraw",
      "outputs": [],
      "stateMutability": "nonpayable",
      "type": "function"
    },
    {
      "inputs": [],
      "name": "safEthBalanceMinusPending",
      "outputs": [
        {
          "internalType": "uint256",
          "name": "",
          "type": "uint256"
        }
      ],
      "stateMutability": "view",
      "type": "function"
    },
    {
      "inputs": [
        {
          "internalType": "address",
          "name": "_newFeeAddress",
          "type": "address"
        }
      ],
      "name": "setFeeAddress",
      "outputs": [],
      "stateMutability": "nonpayable",
      "type": "function"
    },
    {
      "inputs": [
        {
          "internalType": "bool",
          "name": "_pauseDeposit",
          "type": "bool"
        }
      ],
      "name": "setPauseDeposit",
      "outputs": [],
      "stateMutability": "nonpayable",
      "type": "function"
    },
    {
      "inputs": [
        {
          "internalType": "bool",
          "name": "_pauseWithdraw",
          "type": "bool"
        }
      ],
      "name": "setPauseWithdraw",
      "outputs": [],
      "stateMutability": "nonpayable",
      "type": "function"
    },
    {
      "inputs": [
        {
          "internalType": "uint256",
          "name": "_newFee",
          "type": "uint256"
        }
      ],
      "name": "setProtocolFee",
      "outputs": [],
      "stateMutability": "nonpayable",
      "type": "function"
    },
    {
      "inputs": [
        {
          "internalType": "uint256",
          "name": "_newRatio",
          "type": "uint256"
        }
      ],
      "name": "setRatio",
      "outputs": [],
      "stateMutability": "nonpayable",
      "type": "function"
    },
    {
      "inputs": [
        {
          "internalType": "address",
          "name": "_vEthAddress",
          "type": "address"
        }
      ],
      "name": "setStrategyAddress",
      "outputs": [],
      "stateMutability": "nonpayable",
      "type": "function"
    },
    {
      "inputs": [],
      "name": "symbol",
      "outputs": [
        {
          "internalType": "string",
          "name": "",
          "type": "string"
        }
      ],
      "stateMutability": "view",
      "type": "function"
    },
    {
      "inputs": [],
      "name": "totalSupply",
      "outputs": [
        {
          "internalType": "uint256",
          "name": "",
          "type": "uint256"
        }
      ],
      "stateMutability": "view",
      "type": "function"
    },
    {
      "inputs": [
        {
          "internalType": "address",
          "name": "to",
          "type": "address"
        },
        {
          "internalType": "uint256",
          "name": "amount",
          "type": "uint256"
        }
      ],
      "name": "transfer",
      "outputs": [
        {
          "internalType": "bool",
          "name": "",
          "type": "bool"
        }
      ],
      "stateMutability": "nonpayable",
      "type": "function"
    },
    {
      "inputs": [
        {
          "internalType": "address",
          "name": "from",
          "type": "address"
        },
        {
          "internalType": "address",
          "name": "to",
          "type": "address"
        },
        {
          "internalType": "uint256",
          "name": "amount",
          "type": "uint256"
        }
      ],
      "name": "transferFrom",
      "outputs": [
        {
          "internalType": "bool",
          "name": "",
          "type": "bool"
        }
      ],
      "stateMutability": "nonpayable",
      "type": "function"
    },
    {
      "inputs": [
        {
          "internalType": "address",
          "name": "newOwner",
          "type": "address"
        }
      ],
      "name": "transferOwnership",
      "outputs": [],
      "stateMutability": "nonpayable",
      "type": "function"
    },
    {
      "inputs": [],
      "name": "vEthAddress",
      "outputs": [
        {
          "internalType": "address",
          "name": "",
          "type": "address"
        }
      ],
      "stateMutability": "view",
      "type": "function"
    },
    {
      "inputs": [
        {
          "internalType": "uint256",
          "name": "_withdrawId",
          "type": "uint256"
        },
        {
          "internalType": "uint256",
          "name": "_minout",
          "type": "uint256"
        }
      ],
      "name": "withdraw",
      "outputs": [],
      "stateMutability": "nonpayable",
      "type": "function"
    },
    {
      "inputs": [
        {
          "internalType": "uint256",
          "name": "",
          "type": "uint256"
        }
      ],
      "name": "withdrawIdInfo",
      "outputs": [
        {
          "internalType": "address",
          "name": "owner",
          "type": "address"
        },
        {
          "internalType": "uint256",
          "name": "amount",
          "type": "uint256"
        },
        {
          "internalType": "uint256",
          "name": "safEthWithdrawAmount",
          "type": "uint256"
        },
        {
          "internalType": "uint256",
          "name": "vEthWithdrawId",
          "type": "uint256"
        },
        {
          "internalType": "uint256",
          "name": "withdrawTime",
          "type": "uint256"
        }
      ],
      "stateMutability": "view",
      "type": "function"
    },
    {
      "inputs": [
        {
          "internalType": "uint256",
          "name": "_amount",
          "type": "uint256"
        }
      ],
      "name": "withdrawTime",
      "outputs": [
        {
          "internalType": "uint256",
          "name": "",
          "type": "uint256"
        }
      ],
      "stateMutability": "view",
      "type": "function"
    },
    {
      "stateMutability": "payable",
      "type": "receive"
    }
  ],
  "bytecode": "0x60806040523480156200001157600080fd5b506200001c62000022565b620000e3565b600054610100900460ff16156200008f5760405162461bcd60e51b815260206004820152602760248201527f496e697469616c697a61626c653a20636f6e747261637420697320696e697469604482015266616c697a696e6760c81b606482015260840160405180910390fd5b60005460ff90811614620000e1576000805460ff191660ff9081179091556040519081527f7f26b83ff96e1f2b6a682f133852f6798a09c465da95921460cefb38474024989060200160405180910390a15b565b61274780620000f36000396000f3fe6080604052600436106102a45760003560e01c8063787dce3d1161016e578063a9059cbb116100cb578063dd62ed3e1161007f578063f30f0b0011610064578063f30f0b0014610797578063fbe85f06146107ac578063fcff8e9d146107cc57600080fd5b8063dd62ed3e14610731578063f2fde38b1461077757600080fd5b8063b0e21e8a116100b0578063b0e21e8a146106e8578063b2237ba3146106fe578063b6b55f251461071e57600080fd5b8063a9059cbb146106a8578063ad67fbd8146106c857600080fd5b80638da5cb5b1161012257806395d89b411161010757806395d89b411461065e578063a035b1fe14610673578063a457c2d71461068857600080fd5b80638da5cb5b146106185780639224c3e21461063657600080fd5b8063857389011161015357806385738901146105cf5780638705fcd4146105e55780638bdf67f21461060557600080fd5b8063787dce3d1461059a5780638129fc1c146105ba57600080fd5b8063395093511161021c57806369026e88116101d0578063715018a6116101b5578063715018a61461054f57806371ca337d14610564578063745400c91461057a57600080fd5b806369026e88146104ff57806370a082311461051957600080fd5b8063441a3e7011610201578063441a3e70146104a05780634e998483146104c05780636155e3de146104e057600080fd5b80633950935114610448578063412753581461046857600080fd5b806318160ddd1161027357806323b872dd1161025857806323b872dd146103ec57806324cfba9f1461040c578063313ce5671461042c57600080fd5b806318160ddd146103515780631d877bfb1461036657600080fd5b806306fdde03146102b0578063095ea7b3146102db578063107c60e31461030b57806310823ee21461032d57600080fd5b366102ab57005b600080fd5b3480156102bc57600080fd5b506102c56107ec565b6040516102d29190612469565b60405180910390f35b3480156102e757600080fd5b506102fb6102f63660046124f1565b61087e565b60405190151581526020016102d2565b34801561031757600080fd5b5061032b610326366004612529565b610898565b005b34801561033957600080fd5b50610343609b5481565b6040519081526020016102d2565b34801561035d57600080fd5b50606754610343565b34801561037257600080fd5b506103ba61038136600461254d565b609c60205260009081526040902080546001820154600283015460038401546004909401546001600160a01b0390931693919290919085565b604080516001600160a01b0390961686526020860194909452928401919091526060830152608082015260a0016102d2565b3480156103f857600080fd5b506102fb610407366004612566565b6108b3565b34801561041857600080fd5b5061032b6104273660046125a2565b6108d7565b34801561043857600080fd5b50604051601281526020016102d2565b34801561045457600080fd5b506102fb6104633660046124f1565b61090e565b34801561047457600080fd5b50609954610488906001600160a01b031681565b6040516001600160a01b0390911681526020016102d2565b3480156104ac57600080fd5b5061032b6104bb3660046125bd565b61094d565b3480156104cc57600080fd5b50609a54610488906001600160a01b031681565b3480156104ec57600080fd5b50609d546102fb90610100900460ff1681565b34801561050b57600080fd5b50609d546102fb9060ff1681565b34801561052557600080fd5b506103436105343660046125a2565b6001600160a01b031660009081526065602052604090205490565b34801561055b57600080fd5b5061032b610c77565b34801561057057600080fd5b5061034360975481565b34801561058657600080fd5b5061032b61059536600461254d565b610c8b565b3480156105a657600080fd5b5061032b6105b536600461254d565b610f3e565b3480156105c657600080fd5b5061032b610f8d565b3480156105db57600080fd5b50610343609e5481565b3480156105f157600080fd5b5061032b6106003660046125a2565b6110bf565b61032b61061336600461254d565b6110f6565b34801561062457600080fd5b506033546001600160a01b0316610488565b34801561064257600080fd5b50610488736732efaf6f39926346bef8b821a04b6361c4f3e581565b34801561066a57600080fd5b506102c561153d565b34801561067f57600080fd5b5061034361154c565b34801561069457600080fd5b506102fb6106a33660046124f1565b611739565b3480156106b457600080fd5b506102fb6106c33660046124f1565b6117e3565b3480156106d457600080fd5b506103436106e336600461254d565b6117f1565b3480156106f457600080fd5b5061034360985481565b34801561070a57600080fd5b5061032b61071936600461254d565b611878565b61032b61072c36600461254d565b611885565b34801561073d57600080fd5b5061034361074c3660046125df565b6001600160a01b03918216600090815260666020908152604080832093909416825291909152205490565b34801561078357600080fd5b5061032b6107923660046125a2565b611bd7565b3480156107a357600080fd5b50610343611c64565b3480156107b857600080fd5b506102fb6107c736600461254d565b611ced565b3480156107d857600080fd5b5061032b6107e7366004612529565b611d8b565b6060606880546107fb90612612565b80601f016020809104026020016040519081016040528092919081815260200182805461082790612612565b80156108745780601f1061084957610100808354040283529160200191610874565b820191906000526020600020905b81548152906001019060200180831161085757829003601f168201915b5050505050905090565b60003361088c818585611dad565b60019150505b92915050565b6108a0611f06565b609d805460ff1916911515919091179055565b6000336108c1858285611f60565b6108cc858585611ff2565b506001949350505050565b6108df611f06565b609a805473ffffffffffffffffffffffffffffffffffffffff19166001600160a01b0392909216919091179055565b3360008181526066602090815260408083206001600160a01b038716845290915281205490919061088c9082908690610948908790612662565b611dad565b6000828152609c602052604090205482906001600160a01b0316331461099f576040517f30cd747100000000000000000000000000000000000000000000000000000000815260040160405180910390fd5b609d54610100900460ff16156109c8576040516313d0ff5960e31b815260040160405180910390fd5b6000838152609c6020908152604091829020825160a08101845281546001600160a01b031681526001820154928101929092526002810154928201929092526003820154606082015260049091015460808201524790610a2785611ced565b610a5d576040517f5ed8951b00000000000000000000000000000000000000000000000000000000815260040160405180910390fd5b60408181015190517f9e2c8a5b000000000000000000000000000000000000000000000000000000008152600481019190915260006024820152736732efaf6f39926346bef8b821a04b6361c4f3e590639e2c8a5b90604401600060405180830381600087803b158015610ad057600080fd5b505af1158015610ae4573d6000803e3d6000fd5b5050609a5460608401516040517f2e1a7d4d0000000000000000000000000000000000000000000000000000000081526001600160a01b039092169350632e1a7d4d9250610b389160040190815260200190565b600060405180830381600087803b158015610b5257600080fd5b505af1158015610b66573d6000803e3d6000fd5b5050506000868152609c6020526040902060010154610b87915030906121e6565b476000610b948483612675565b90508260400151609e6000828254610bac9190612675565b909155505085811015610beb576040517f24dbc0ca00000000000000000000000000000000000000000000000000000000815260040160405180910390fd5b604051600090339083908381818185875af1925050503d8060008114610c2d576040519150601f19603f3d011682016040523d82523d6000602084013e610c32565b606091505b5050905080610c6d576040517f467d86d100000000000000000000000000000000000000000000000000000000815260040160405180910390fd5b5050505050505050565b610c7f611f06565b610c896000612349565b565b6000610c96826117f1565b609d54909150610100900460ff1615610cc2576040516313d0ff5960e31b815260040160405180910390fd5b609b8054906000610cd283612688565b9091555050306000908152606560205260408120549050600081610cf560675490565b610cff9190612675565b610d1185670de0b6b3a76400006126a2565b610d1b91906126b9565b9050610d28333086611ff2565b609a546040516370a0823160e01b81523060048201526000916001600160a01b0316906370a0823190602401602060405180830381865afa158015610d71573d6000803e3d6000fd5b505050506040513d601f19601f82011682018060405250810190610d9591906126db565b90506000670de0b6b3a7640000610dac83856126a2565b610db691906126b9565b609a546040517f745400c9000000000000000000000000000000000000000000000000000000008152600481018390529192506000916001600160a01b039091169063745400c9906024016020604051808303816000875af1158015610e20573d6000803e3d6000fd5b505050506040513d601f19601f82011682018060405250810190610e4491906126db565b90506000610e50611c64565b90506000670de0b6b3a7640000610e6783886126a2565b610e7191906126b9565b905080609e6000828254610e859190612662565b9091555050609b80546000908152609c602090815260408083206002018590558354835280832060030187905583548352808320805473ffffffffffffffffffffffffffffffffffffffff191633908117909155845484528184206001018e905584548452928190206004018c9055925483518d8152918201529182018a9052907f10cb9ecc29a8f1ff6817e46814ac60fa10f06dd5f080bf118644a060903c39f99060600160405180910390a2505050505050505050565b610f46611f06565b670de0b6b3a7640000811115610f88576040517f58d620b300000000000000000000000000000000000000000000000000000000815260040160405180910390fd5b609855565b600054610100900460ff1615808015610fad5750600054600160ff909116105b80610fc75750303b158015610fc7575060005460ff166001145b61103e5760405162461bcd60e51b815260206004820152602e60248201527f496e697469616c697a61626c653a20636f6e747261637420697320616c72656160448201527f647920696e697469616c697a656400000000000000000000000000000000000060648201526084015b60405180910390fd5b6000805460ff191660011790558015611061576000805461ff0019166101001790555b61106a33612349565b6706f05b59d3b2000060975580156110bc576000805461ff0019169055604051600181527f7f26b83ff96e1f2b6a682f133852f6798a09c465da95921460cefb38474024989060200160405180910390a15b50565b6110c7611f06565b6099805473ffffffffffffffffffffffffffffffffffffffff19166001600160a01b0392909216919091179055565b609a546098546001600160a01b0390911690600090670de0b6b3a76400009061111f90856126a2565b61112991906126b9565b905080156111c0576099546040516000916001600160a01b03169083908381818185875af1925050503d806000811461117e576040519150601f19603f3d011682016040523d82523d6000602084013e611183565b606091505b50509050806111be576040517f467d86d100000000000000000000000000000000000000000000000000000000815260040160405180910390fd5b505b60006111cc8285612675565b90506000670de0b6b3a76400006111e1611c64565b604051638bcb441360e01b815260016004820152736732efaf6f39926346bef8b821a04b6361c4f3e590638bcb441390602401602060405180830381865afa158015611231573d6000803e3d6000fd5b505050506040513d601f19601f8201168201806040525081019061125591906126db565b61125f91906126a2565b61126991906126b9565b609a546040516370a0823160e01b81523060048201529192506000916ec097ce7bc90715b34b9f1000000000916001600160a01b0316906370a0823190602401602060405180830381865afa1580156112c6573d6000803e3d6000fd5b505050506040513d601f19601f820116820180604052508101906112ea91906126db565b6040517f2ffcfe6d000000000000000000000000000000000000000000000000000000008152600160048201526001600160a01b03881690632ffcfe6d90602401602060405180830381865afa158015611348573d6000803e3d6000fd5b505050506040513d601f19601f8201168201806040525081019061136c91906126db565b876001600160a01b031663368b03436040518163ffffffff1660e01b8152600401602060405180830381865afa1580156113aa573d6000803e3d6000fd5b505050506040513d601f19601f820116820180604052508101906113ce91906126db565b6113d891906126a2565b6113e291906126a2565b6113ec91906126b9565b905060006113fa8284612662565b905060008161141185670de0b6b3a76400006126a2565b61141b91906126b9565b90506097548110156114be576040517fa694fc3a00000000000000000000000000000000000000000000000000000000815260006004820152736732efaf6f39926346bef8b821a04b6361c4f3e59063a694fc3a90879060240160206040518083038185885af1158015611493573d6000803e3d6000fd5b50505050506040513d601f19601f820116820180604052508101906114b891906126db565b50610c6d565b6040517f8bdf67f2000000000000000000000000000000000000000000000000000000008152600481018690526001600160a01b03881690638bdf67f29087906024016000604051808303818588803b15801561151a57600080fd5b505af115801561152e573d6000803e3d6000fd5b50505050505050505050505050565b6060606980546107fb90612612565b600061155760675490565b60000361156b5750670de0b6b3a764000090565b609a546001600160a01b03166000670de0b6b3a764000061158a611c64565b604051638bcb441360e01b815260016004820152736732efaf6f39926346bef8b821a04b6361c4f3e590638bcb441390602401602060405180830381865afa1580156115da573d6000803e3d6000fd5b505050506040513d601f19601f820116820180604052508101906115fe91906126db565b61160891906126a2565b61161291906126b9565b6040516370a0823160e01b8152306004820152909150600090670de0b6b3a7640000906001600160a01b038516906370a0823190602401602060405180830381865afa158015611666573d6000803e3d6000fd5b505050506040513d601f19601f8201168201806040525081019061168a91906126db565b846001600160a01b031663a035b1fe6040518163ffffffff1660e01b8152600401602060405180830381865afa1580156116c8573d6000803e3d6000fd5b505050506040513d601f19601f820116820180604052508101906116ec91906126db565b6116f691906126a2565b61170091906126b9565b905061170b60675490565b6117158383612662565b61172790670de0b6b3a76400006126a2565b61173191906126b9565b935050505090565b3360008181526066602090815260408083206001600160a01b0387168452909152812054909190838110156117d65760405162461bcd60e51b815260206004820152602560248201527f45524332303a2064656372656173656420616c6c6f77616e63652062656c6f7760448201527f207a65726f0000000000000000000000000000000000000000000000000000006064820152608401611035565b6108cc8286868403611dad565b60003361088c818585611ff2565b609a546040517fad67fbd8000000000000000000000000000000000000000000000000000000008152600481018390526000916001600160a01b03169063ad67fbd890602401602060405180830381865afa158015611854573d6000803e3d6000fd5b505050506040513d601f19601f8201168201806040525081019061089291906126db565b611880611f06565b609755565b609d5460ff16156118a9576040516313d0ff5960e31b815260040160405180910390fd5b3460006118b461154c565b609a546097549192506000916001600160a01b03909116908290670de0b6b3a7640000906118e290876126a2565b6118ec91906126b9565b905060008082116118fe57600061198f565b6040517fa694fc3a00000000000000000000000000000000000000000000000000000000815260006004820152736732efaf6f39926346bef8b821a04b6361c4f3e59063a694fc3a90849060240160206040518083038185885af115801561196a573d6000803e3d6000fd5b50505050506040513d601f19601f8201168201806040525081019061198f91906126db565b90506000670de0b6b3a7640000609754670de0b6b3a76400006119b29190612675565b6119bc90896126a2565b6119c691906126b9565b905060008082116119d8576000611a3d565b846001600160a01b031663d0e30db0836040518263ffffffff1660e01b815260040160206040518083038185885af1158015611a18573d6000803e3d6000fd5b50505050506040513d601f19601f82011682018060405250810190611a3d91906126db565b9050846001600160a01b031663a035b1fe6040518163ffffffff1660e01b8152600401602060405180830381865afa158015611a7d573d6000803e3d6000fd5b505050506040513d601f19601f82011682018060405250810190611aa191906126db565b611aab90826126a2565b604051638bcb441360e01b815260016004820152736732efaf6f39926346bef8b821a04b6361c4f3e590638bcb441390602401602060405180830381865afa158015611afb573d6000803e3d6000fd5b505050506040513d601f19601f82011682018060405250810190611b1f91906126db565b611b2990856126a2565b611b339190612662565b611b3d9087612662565b955085600003611b79576040517fa4790ee300000000000000000000000000000000000000000000000000000000815260040160405180910390fd5b6000611b8588886126b9565b905089811015611bc1576040517f24dbc0ca00000000000000000000000000000000000000000000000000000000815260040160405180910390fd5b611bcb33826123a8565b50505050505050505050565b611bdf611f06565b6001600160a01b038116611c5b5760405162461bcd60e51b815260206004820152602660248201527f4f776e61626c653a206e6577206f776e657220697320746865207a65726f206160448201527f64647265737300000000000000000000000000000000000000000000000000006064820152608401611035565b6110bc81612349565b609e546040516370a0823160e01b815230600482015260009190736732efaf6f39926346bef8b821a04b6361c4f3e5906370a0823190602401602060405180830381865afa158015611cba573d6000803e3d6000fd5b505050506040513d601f19601f82011682018060405250810190611cde91906126db565b611ce89190612675565b905090565b609a546000828152609c60205260408082206003015490517ffbe85f0600000000000000000000000000000000000000000000000000000000815291926001600160a01b03169163fbe85f0691611d4a9160040190815260200190565b602060405180830381865afa158015611d67573d6000803e3d6000fd5b505050506040513d601f19601f8201168201806040525081019061089291906126f4565b611d93611f06565b609d80549115156101000261ff0019909216919091179055565b6001600160a01b038316611e285760405162461bcd60e51b8152602060048201526024808201527f45524332303a20617070726f76652066726f6d20746865207a65726f2061646460448201527f72657373000000000000000000000000000000000000000000000000000000006064820152608401611035565b6001600160a01b038216611ea45760405162461bcd60e51b815260206004820152602260248201527f45524332303a20617070726f766520746f20746865207a65726f20616464726560448201527f73730000000000000000000000000000000000000000000000000000000000006064820152608401611035565b6001600160a01b0383811660008181526066602090815260408083209487168084529482529182902085905590518481527f8c5be1e5ebec7d5bd14f71427d1e84f3dd0314c0f7b2291e5b200ac8c7c3b92591015b60405180910390a3505050565b6033546001600160a01b03163314610c895760405162461bcd60e51b815260206004820181905260248201527f4f776e61626c653a2063616c6c6572206973206e6f7420746865206f776e65726044820152606401611035565b6001600160a01b038381166000908152606660209081526040808320938616835292905220546000198114611fec5781811015611fdf5760405162461bcd60e51b815260206004820152601d60248201527f45524332303a20696e73756666696369656e7420616c6c6f77616e63650000006044820152606401611035565b611fec8484848403611dad565b50505050565b6001600160a01b03831661206e5760405162461bcd60e51b815260206004820152602560248201527f45524332303a207472616e736665722066726f6d20746865207a65726f20616460448201527f64726573730000000000000000000000000000000000000000000000000000006064820152608401611035565b6001600160a01b0382166120ea5760405162461bcd60e51b815260206004820152602360248201527f45524332303a207472616e7366657220746f20746865207a65726f206164647260448201527f65737300000000000000000000000000000000000000000000000000000000006064820152608401611035565b6001600160a01b038316600090815260656020526040902054818110156121795760405162461bcd60e51b815260206004820152602660248201527f45524332303a207472616e7366657220616d6f756e742065786365656473206260448201527f616c616e636500000000000000000000000000000000000000000000000000006064820152608401611035565b6001600160a01b0380851660008181526065602052604080822086860390559286168082529083902080548601905591517fddf252ad1be2c89b69c2b068fc378daa952ba7f163c4a11628f55a4df523b3ef906121d99086815260200190565b60405180910390a3611fec565b6001600160a01b0382166122625760405162461bcd60e51b815260206004820152602160248201527f45524332303a206275726e2066726f6d20746865207a65726f2061646472657360448201527f73000000000000000000000000000000000000000000000000000000000000006064820152608401611035565b6001600160a01b038216600090815260656020526040902054818110156122f15760405162461bcd60e51b815260206004820152602260248201527f45524332303a206275726e20616d6f756e7420657863656564732062616c616e60448201527f63650000000000000000000000000000000000000000000000000000000000006064820152608401611035565b6001600160a01b03831660008181526065602090815260408083208686039055606780548790039055518581529192917fddf252ad1be2c89b69c2b068fc378daa952ba7f163c4a11628f55a4df523b3ef9101611ef9565b603380546001600160a01b0383811673ffffffffffffffffffffffffffffffffffffffff19831681179093556040519116919082907f8be0079c531659141344cd1fd0a4f28419497f9722a3daafe3b4186f6b6457e090600090a35050565b6001600160a01b0382166123fe5760405162461bcd60e51b815260206004820152601f60248201527f45524332303a206d696e7420746f20746865207a65726f2061646472657373006044820152606401611035565b80606760008282546124109190612662565b90915550506001600160a01b0382166000818152606560209081526040808320805486019055518481527fddf252ad1be2c89b69c2b068fc378daa952ba7f163c4a11628f55a4df523b3ef910160405180910390a35050565b600060208083528351808285015260005b818110156124965785810183015185820160400152820161247a565b5060006040828601015260407fffffffffffffffffffffffffffffffffffffffffffffffffffffffffffffffe0601f8301168501019250505092915050565b80356001600160a01b03811681146124ec57600080fd5b919050565b6000806040838503121561250457600080fd5b61250d836124d5565b946020939093013593505050565b80151581146110bc57600080fd5b60006020828403121561253b57600080fd5b81356125468161251b565b9392505050565b60006020828403121561255f57600080fd5b5035919050565b60008060006060848603121561257b57600080fd5b612584846124d5565b9250612592602085016124d5565b9150604084013590509250925092565b6000602082840312156125b457600080fd5b612546826124d5565b600080604083850312156125d057600080fd5b50508035926020909101359150565b600080604083850312156125f257600080fd5b6125fb836124d5565b9150612609602084016124d5565b90509250929050565b600181811c9082168061262657607f821691505b60208210810361264657634e487b7160e01b600052602260045260246000fd5b50919050565b634e487b7160e01b600052601160045260246000fd5b808201808211156108925761089261264c565b818103818111156108925761089261264c565b6000600019820361269b5761269b61264c565b5060010190565b80820281158282048414176108925761089261264c565b6000826126d657634e487b7160e01b600052601260045260246000fd5b500490565b6000602082840312156126ed57600080fd5b5051919050565b60006020828403121561270657600080fd5b81516125468161251b56fea26469706673582212206087ce4459972eee260a35e9277dec4b07066e312507aebcd705f90f81d55ffa64736f6c63430008130033",
  "linkReferences": {},
  "deployedLinkReferences": {}
}